:1010000009EF08F0FF00FF005682EEEC0DF056925B
:101010001100ADEF0BF06BD382B282A403D0010EAE
:101020003C6E120082BC82AE03D0050E3C6E1200F4
:1010300081B081A203D00A0E3C6E1200314A322ADE
:101040003750020D000EF324D96E010EF420DA6E33
:10105000DECF3EF0DDCF3FF059EC0EF0325004E130
:10106000C80E315CD8A01200000E326E000E316E38
:10107000372A000E8A6E3B5096EC0DF03B2896EC1A
:101080000DF0020E3B263B50800A7A0FD8A002D00A
:10109000000E3B6E3A0E3718D8A41200000E376EC1
:1010A0001200000E2E6E000E2D6E000E306E000E21
:1010B0002F6E0B0E286EB80E276E2CEC0EF000096A
:1010C000D8A4120031C03EF032C03FF061EC0EF007
:1010D000030E3C6E12003A5096EC0DF03A50020DA1
:1010E000010EF324D96E000EF420DA6EDECF3EF04E
:1010F000DDCF3FF059EC0EF02F4A302A3AC052F0C3
:10110000536A52BE5306BBEC0DF0546E556A5250F2
:1011100054180BE153505518D8A407D02D4A2E2A45
:10112000000E306E000E2F6ED3D727502F5C285044
:101130003058D8B005D02CEC0EF0E806D8A4120038
:10114000000E306E000E2F6E040E3C6E120068EC26
:101150000EF0000E8A6E2F4A302A27C03EF028C0BB
:101160003FF0000E416E0A0E406E46EC0DF03E5010
:101170002F5C3F503058D8A012001DEC0DF04AC033
:101180004CF04BC04DF0000E4F6E060E4E6E63ECF1
:101190000CF04C503A6E320E275E000E285A640E48
:1011A00027182810D8A404D0000E286E960E276E9B
:1011B000000E306E000E2F6E020E3C6E120068ECB8
:1011C0000EF02F4A302A2D502E10D8A406D0000E33
:1011D000326E000E316E000E3C6E900E2F1805E13F
:1011E0003004D8A402D0FC0E8A6EBC0E2F1803E186
:1011F000020E3018D8A412002D06D8A02E06000E1C
:10120000306E000E2F6E000E8A6E120068EC0EF02B
:101210003868000E306E000E2F6E000E396E000E14
:10122000376E060E3C6E12002F4A302A3950D8A471
:1012300003D0000E8A6E0CD0000E96EC0DF0010E5D
:1012400096EC0DF0020E96EC0DF0030E96EC0DF000
:10125000F40E2F1811E13004D8A40ED0000E306E19
:10126000000E2F6EFF0E39243E6E3F6AFF0E3F22A6
:1012700007EC0EF03E50396E82A2120082A41200DA
:1012800082AC120082AE120081B0120081B2120054
:10129000000E306E000E2F6E070E3C6E1DEC0DF032
:1012A0004AC04CF04BC04DF0000E4F6E050E4E6E16
:1012B00063EC0CF00A0E4C242B6E000E4D202C6EAD
:1012C00012002F4A302A200E2F1815E1030E301875
:1012D000D8A411D02B06D8A02C06FF0E39243E6EC0
:1012E0003F6AFF0E3F2207EC0EF03E50396E000EB3
:1012F000306E000E2F6E3904D8A40DD0E20E3F6E72
:10130000BC0E3E6E59EC0EF0040E96EC0DF0050E80
:1013100096EC0DF004D068EC0EF0000E8A6E82B4EC
:1013200006D0000E306E000E2F6E000E17D082B267
:1013300006D0000E306E000E2F6E010E0FD082BC54
:1013400006D0000E306E000E2F6E020E07D082BE49
:1013500008D0000E306E000E2F6E030E386E090E90
:101360003C6E2B502C10D8A41200000E306E000ED4
:101370002F6E080E3C6E12002F4A302A640E2F1872
:101380003010D8A40ED0FF0E39243E6E3F6AFF0EF7
:101390003F2207EC0EF03E50396E000E306E000E0C
:1013A0002F6E3904D8A409D0E20E3F6EBC0E3E6EFB
:1013B00059EC0EF0000E8A6E08D0FC0E8A6E890E73
:1013C0003F6E210E3E6E59EC0EF082A482B20ED01A
:1013D00082AC82AE0BD0000E376E000E306E000E67
:1013E0002F6E030E386E090E3C6E120082A482B27C
:1013F0000ED082BC82BE0BD0000E376E000E306E57
:10140000000E2F6E020E386E090E3C6E120082A482
:1014100082A20ED082AC82BE0BD0000E376E000EC0
:10142000306E000E2F6E010E386E090E3C6E1200EB
:1014300082A4120082B2120082BC120082BE12008C
:10144000000E376E000E306E000E2F6E000E386EDE
:10145000090E3C6E12002F4A302A3750020D600EE2
:10146000F324D96E000EF420DA6EDECF3EF0DDCF2D
:101470003FF059EC0EF0640E2F183010D8A41BD09A
:10148000000E306E000E2F6EFF0E39243E6E3F6A46
:10149000FF0E3F2207EC0EF03E50396E372A2D0E1C
:1014A0003718D8A408D0000E326E000E316E000E30
:1014B000376E000E3C6E3950D8A4A5D6385096EC45
:1014C0000DF0120068EC0EF0000E306E000E2F6E64
:1014D000000E2C6E000E2B6E000E2A6E010E296E71
:1014E0002CEC0EF00009D8A4120031C03EF032C03E
:1014F0003FF061EC0EF00C0E3C6E12002F4A302AC9
:10150000000E8A6E68EC0EF0F40E2F1802E1300423
:10151000D8A41200000E306E000E2F6E000E2B2489
:10152000D96E020E2C20DA6E1DEC0DF04AC04CF084
:101530004BC04DF0000E4F6E060E4E6E63EC0CF07D
:101540004C50DF6E0B0E3C6E1200000E2B24D96E39
:10155000020E2C20DA6EDF50526E5250020D010E38
:10156000F324D96E000EF420DA6EDECF3EF0DDCF2C
:101570003FF059EC0EF0000E2B24D96E020E2C20F9
:10158000DA6EDF5096EC0DF02F4A302AE80E2F1855
:1015900003E1030E3018D8A41200000E306E000EC6
:1015A0002F6E2B4A2C2A29502B18A5E12A502C18D3
:1015B000D8A4A1D7000E2C6E000E2B6E0E0E3C6E22
:1015C00012002CEC0EF00009D8A412000D0E3C6E97
:1015D000120068EC0EF0000E8A6E2F4A302A2CECB6
:1015E0000EF0E806D8A407D0000E306E000E2F6E65
:1015F0000F0E3C6E1200D00E2F1803E1070E3018AC
:10160000D8A41200000E306E000E2F6E100E3C6E2D
:101610001200000E2B24D96E020E2C20DA6EDF5041
:10162000526E536A52BE5306BBEC0DF0546E556AAF
:101630005250541834E153505518D8A430D0BBEC54
:101640000DF096EC0DF0BBEC0DF0526E5250020D09
:10165000010EF324D96E000EF420DA6EDECF3EF0D8
:10166000DDCF3FF059EC0EF02B4A2C2A29502B18D5
:1016700010E12A502C18D8A40CD0000E306E000EA9
:101680002F6E294A2A2A000E2C6E000E2B6E0C0E8D
:101690000BD0000E306E000E2F6E0E0E05D0000E19
:1016A000306E000E2F6E100E3C6E68EC0EF02F4A5E
:1016B000302A29502A10D8A406D0000E326E000E0F
:1016C000316E000E3C6EC80E2F183010D8A402D018
:1016D000FC0E8A6E900E2F183FE13004D8A4120041
:1016E0002906D8A02A068BD5000E3C6E12003C506D
:1016F000000AD8B491D4010AD8B4D3D4030AD8B418
:10170000EAD4010AD8B423D5070AD8B458D5010AB7
:10171000D8B47CD5030AD8B487D5010AD8B4D1D5BA
:101720000F0AD8B429D6010AD8B495D6030AD8B47A
:10173000C9D6010AD8B409D7070AD8B4DFD6010A36
:10174000D8B447D7030AD8B43CD7010AD8B461D774
:101750001F0AD8B4AAD7C8D71200E00EF66E170E2B
:10176000F76E000EF86E01EE00F010EE74F0090056
:10177000F5CFEEFFE550E150FAE1360EF66E190EA8
:10178000F76E000EF86E00EE60F010EE5AF00900F1
:10179000F5CFEEFFE550E150FAE1360EF66E1C0E85
:1017A000F76E000EF86E00EE01F010EE22F0090068
:1017B000F5CFEEFFE550E150FAE102EE00F0C80E81
:1017C000EE6AE806FDE100EE23F01A0EEE6AE80686
:1017D000FDE156905692000EF86E00013AEF0EF0C1
:1017E00039BDEF95D6B039BDBDC41BA771B939BDA0
:1017F000D6B039BD3ACB05CED6B03ACBBDC439BD93
:10180000EF95D6B039BDBDC41BA771B939BDD6B0EF
:1018100039BD3ACB05CED6B03ACBBDC439BDEF9574
:10182000D6B039BDBDC41BA771B939BDD6B039BD5D
:101830003ACB05CED6B03ACBBDC439BDEF95D6B0C4
:1018400039BD71B921891BA7D6B01BA7D6B01BA77C
:10185000D6B071B9406ECD82CF0ECD16CD80CD50B1
:101860003F0B4009CD6ECD8440C03EF0010E3E16C8
:101870009D503E18FE0B3E189D6EF2AE03D03E6AA0
:101880003E2A01D03E6A4050010B3E103F6E3F326F
:101890003F32F2503F187F0B3F18F26EF2AC03D08C
:1018A0003E6A3E2A01D03E6A4050010B3E103F6E18
:1018B0003F3A3F463F46F2503F18BF0B3F18F26E8B
:1018C0009F909E901200000E516E4DAE06D04C6C53
:1018D0004D1ED8B04D2A010E516E4FAE04D04E6C45
:1018E0004F1ED8B04F2A4E504F10D8B418D0010E0A
:1018F000506E04D0D8904E364F36502A4FAEFAD79D
:101900004E504C5C4F504D58D8A004D04E504C5EB9
:101910004F504D5AD8904F324E32502EF1D7515031
:10192000D8B404D04C6C4D1ED8B04D2A4CC04CF0ED
:101930004DC04DF01200BCE2BCE2BCE2D3E0D3E00B
:10194000D3E0E6DCE6DCE6DC95D895D895D8B0D3D4
:10195000B0D3B0D3FBD0FBD0FBD03ACB3ACB3ACB11
:10196000BDC4BDC4BDC43BC13BC13BC171B971B9AC
:1019700071B9D6B0D6B0D6B01BA71BA71BA7AAA11A
:10198000AAA1AAA1EF95EF95EF9521892189218937
:10199000000E466E000E476E000E486E000E496E39
:1019A0003EA008D042504626435047224450482289
:1019B00045504922D8904236433644364536D89071
:1019C000413240323F323E323E503F1040104110D3
:1019D000D8A4E6D746C03EF047C03FF048C040F02C
:1019E00049C041F01200406ED58CD59AD596D5509D
:1019F000F80B0309D56E000ED76E070ED66E40C0E9
:101A00003EF0010E3E163E3A3E46F2503E18DF0BC7
:101A10003E18F26EF2AE03D03E6A3E2A01D03E6A14
:101A20004050010B3E103F6E3F323F32F2503F18A4
:101A30007F0B3F18F26EF29412001FC03EF020C0E0
:101A40003FF021C040F022C041F06D0E426E4E0EBC
:101A5000436EC60E446E410E456EC8EC0CF03EC09F
:101A60001FF03FC020F040C021F041C022F0390EED
:101A70001F26300E2022000E2122000E2222FF0EF1
:101A800021144A6E7F0E22144B6E1200000E436E1C
:101A9000000E426E40504110D8B41CD0010E446E6E
:101AA00004D0D89040364136442A41AEFAD7D89077
:101AB0004236433640503E5C41503F58D8A005D096
:101AC00040503E5E41503F5A4280D89041324032B1
:101AD000442EEDD742C03EF043C03FF01200000E4E
:101AE000896E000E8A6E000E8B6E000EF3EC0CF009
:101AF000700ED3120F015D9F5D9D5D959290929245
:101B0000929492969298929A9380938293949396B9
:101B10009398939A939C939E948094829484948CAB
:101B2000948ED5EC0DF046EC0EF012003E6E0FD008
:101B30008A8412008A8612008A8812008A8A120019
:101B40008A8C12008A8E1200000E8A6E12003E509D
:101B5000000AD8B4EDD7010AD8B4ECD7030AD8B438
:101B6000EBD7010AD8B4EAD7070AD8B4E9D7010AF3
:101B7000D8B4E8D7E9D782A402D0000E120082A21E
:101B800002D0010E120082AC02D0020E120082AE10
:101B900002D0030E120081A002D0040E120081A216
:101BA00002D0050E1200FF0E1200000E3C6E000E59
:101BB000326E000E316E000E3B6E000E306E000E67
:101BC0002F6E000E2E6E000E2D6E000E3A6E000E61
:101BD0002C6E000E2B6E000E376E12009EA01200AF
:101BE0003604D8A403D0CD9089900FD089B003D00B
:101BF0003D6A3D2A01D03D6A89503D18FE0B3D18D3
:101C0000896E23C0CEFF24C0CFFF9E9012003FAE4E
:101C10000DD03EC040F03FC041F0401E411E404A42
:101C2000412A40C03EF041C03FF012003EC03EF0AD
:101C30003FC03FF01200BCE2D3E0E6DC95D8B0D361
:101C4000FBD03ACBBDC43BC171B9D6B01BA7AAA18A
:101C5000EF9521890100000082A482B207D082ACF6
:101C600082BE04D081B002D081A202D0010E120047
:101C7000000E12006FEC0DF002D00BEC08F050ECEF
:101C80000EF00009D8B409EF08F0F7D7010E2AECDE
:101C90000CF0000E246E000E236E000E366E120045
:101CA00001D000F0F2A4FDD7070ED66EF294010E1B
:101CB0001200000E366E3EC023F03FC024F0CD80EF
:101CC00012003EC01FF03FC020F0216A226A1200BD
:101CD000010E366E1200FF00FF00FF00FF00FF0044
:020000040020DA
:08000000FFFFFFFFFFFFFFFF00
:020000040030CA
:0E00000000255F3FFFD385FF0FC00FE00F40CC
:00000001FF
